:020000040800F2
:1000000040090020B5010008011C0008F91B000888
:10001000FD1B0008710200086D21000800000000AF
:10002000000000000000000000000000091C0008A3
:100030008905000800000000051C00080D1C0008D0
:10004000CF010008CF010008CF010008CF01000850
:10005000CF010008CF010008CF010008CF01000840
:10006000CF010008CF010008CF010008CF01000830
:10007000CF010008CF010008CF010008CF01000820
:10008000CF010008CF010008CF010008CF01000810
:10009000CF010008CF010008CF010008CF01000800
:1000A000CF010008CF010008CF010008CF010008F0
:1000B000CF010008CF010008CF010008CF010008E0
:1000C000CF010008CF010008CF010008CF010008D0
:1000D000CF01000861210008CF010008CF0100080E
:1000E000CF010008CF010008CF01000800F002F89E
:1000F00000F050F814A696E8000CB244B344DA4578
:1001000001D100F047F8BAE80F000FA696E83000DA
:10011000A5EB040504EB0607AAEB0704A7F101070A
:100120004FEA15154FEA3414A4F10104AC4201D38F
:1001300000F030F813F0010F18BFFB1A43F0010371
:1001400000F001F8DBE7184788280000A828000025
:10015000103A24BF78C878C1FAD8520724BF30C8F3
:1001600030C144BF04680C60704700007047000055
:100170000023002400250026103A28BF78C1FBD8B0
:10018000520728BF30C148BF0B6070471FB51FBD65
:1001900010B510BD00F031F81146FFF7F7FF01F080
:1001A000E7FF00F04FF803B4FFF7F2FF03BC00F0E5
:1001B00057F800000948804709480047FEE7FEE776
:1001C000FEE7FEE7FEE7FEE7FEE7FEE7FEE7FEE707
:1001D00004480549054A064B70470000111C0008F9
:1001E000ED000008400300204009002040050020E9
:1001F00040050020704770477047754600F02CF8A6
:10020000AE4605006946534620F00700854618B003
:1002100020B5FFF7DDFFBDE820404FF000064FF0AE
:1002200000074FF000084FF0000BAC46ACE8C009E7
:10023000ACE8C009ACE8C009ACE8C00921F007018E
:100240008D46704710B50446AFF300802046BDE8E8
:100250001040FFF7A8BF00000048704720000020B2
:1002600001491820ABBEFEE72600020070470000DF
:10027000FEE700002DE9F04381B040F27814C2F2AD
:1002800000044FF4807000254FF0080840F2FC078E
:100290002065C4E91655C4F8608084F86450C2F241
:1002A0000007B86902F00EFA000A84F82000B86965
:1002B00002F008FA84F82100F86902F003FA000A53
:1002C00084F82200F86902F0FDF984F82300386A06
:1002D00002F0F8F9000A84F82400386A02F0F2F912
:1002E00084F82500786A02F0EDF9000A84F8260007
:1002F000786A02F0E7F940F2E01684F82700C2F2CB
:10030000000640F20110C6E90005C6E90255C6F82C
:1003100010803575B86A02F0D5F9000A84F8280013
:10032000B86A02F0CFF984F82900F86A02F0CAF935
:10033000000A84F82A00F86A02F0C4F984F82B0055
:10034000386B02F0BFF9000A84F82C00386B02F019
:10035000B9F984F82D00786B02F0B4F9000A84F83A
:100360002E00786B02F0AEF984F82F004FF4817004
:10037000C6E90605C6E90855C6F8288086F82C5057
:10038000B86B02F09FF9000A84F83000B86B02F0F5
:1003900099F984F83100F86B02F094F984F832008E
:1003A000386C02F08FF984F83300786C02F08AF927
:1003B00084F83400B86C02F085F984F83500F86CE4
:1003C00002F080F984F83600386D02F07BF9000AFB
:1003D00084F837004FF482700321C6E90C05C6E9A2
:1003E0000E55316486F84450386D02F06BF940F2D6
:1003F0008009C2F2000989F81400786D02F062F9F0
:1004000089F81500786D02F05DF989F8160040F260
:100410000510C6E91205C6E91455C6F8588086F8D5
:100420005C50386E02F04EF9000A84F83800386EDD
:1004300002F048F984F83900786E02F043F9000AB6
:1004400084F83A00786E02F03DF984F83B00B86E0B
:1004500002F038F9000A84F83C00B86E02F032F974
:1004600084F83D00F86E02F02DF9000A84F83E0091
:10047000F86E02F027F984F83F004FF48370C6E964
:100480001805C6E91A55C6F8708086F87450386F9A
:1004900002F018F9000A84F84000386F02F012F9EF
:1004A00084F84100786F02F00DF9000A84F84200E8
:1004B000786F02F007F984F84300B86F02F002F990
:1004C000000A84F84400B86F02F0FCF884F8450094
:1004D000206802F0F7F8000A84F84600206802F06D
:1004E000F1F840F2582684F84700C2F2000640F2C4
:1004F0000710C6E90005C6E90255C6F81080357533
:10050000606802F0DFF8000A84F84800606802F0D2
:10051000D9F884F84900A06802F0D4F8000A84F8F9
:100520004A00A06802F0CEF884F84B00E06802F0C0
:10053000C9F8000A84F84C00E06802F0C3F884F8B7
:100540004D00206902F0BEF8000A84F84E002069D0
:1005500002F0B8F884F84F004FF484700221C6E925
:100560000605C6E90855B16286F82C50606902F0AC
:10057000A9F8000A89F81200606902F0A3F889F866
:10058000130001B0BDE8F0837047000010B590F88B
:1005900020E0D0F800C0AEF1010EBEF1010FDCF892
:1005A00008E011D81EF0E05F18D0CEF301640120FE
:1005B000A04018608B68DBB1D1F804E0C86840EA5D
:1005C000CE0040EA030E17E000F1240301204FF4AF
:1005D00080211A681143196010BD00BF00F1240387
:1005E00001204FF400111A681143196010BD00BFBB
:1005F0000868CB6843EA405E0CF5C07000EB04135A
:10060000240140F804E00C69184640F8044F097DC5
:10061000012903D1016841F4807101605068012112
:10062000D8601068986000201A681143196010BDE6
:1006300090F820100139012984BF0020704700681C
:10064000816882688068C1F38061C2F3C06211442E
:10065000C0F3007008447047002804BF01207047B1
:10066000B0B5044690F8200010B9204600F06EF8AE
:100670002068016841F00101016000F071FA05464F
:1006800020684168C90705D100F06AFA401B0B28B1
:10069000F6D310E0016821F00201016000F060FA79
:1006A000054600BF2068416889070DD500F058FA5B
:1006B000401B0B28F6D3606A052140F400306062CD
:1006C000012084F82010B0BD217E0268012922F0AB
:1006D000800208BF80320260617E0268012922F038
:1006E000400208BF40320260A17E0268012922F068
:1006F000200208BF20320260E17E0268012922F058
:10070000100218BF10320260217F0268012922F016
:10071000080208BF08320260617F0268012922F0E6
:10072000040208BF04320260D4E901C2D4E90335EF
:1007300061691A432A431143ACF101021143C161BB
:1007400000200121606284F82010B0BDB0B586B0F1
:1007500040F60004C4F201040068A4F5244200211C
:1007600090420591CDE90311029101D006B0B0BDD0
:1007700041F21800C4F20200426802AD42F0007279
:100780004260426802F000720192019A026842F0EF
:1007900004020260006800F00400019001984FF428
:1007A0000060CDE9020104912046294600F0D0F80E
:1007B0004FF48050029002200390032005902046C1
:1007C000294600F0C5F806B0B0BD0000B0B504463B
:1007D00090F8200001281DD1022084F82000206814
:1007E000016821F00101016000F0BAF9054600BF7F
:1007F00020684068C00713D000F0B2F9401B0B28F6
:10080000F6D3606A40F400306062052084F820006E
:100810000120B0BD606A40F4002060620120B0BDDC
:1008200000206062B0BD0000014690F8210002285F
:1008300016D10868D1E90FC3026822F00E020260E7
:10084000026822F001020260012000FA03F2CCF8F3
:10085000042081F821000020002281F82020704728
:10086000042088630120002281F8202070470000C6
:1008700090F82110022923D1026840F2040C11687B
:10088000C4F2020C21F00E01116013682F21C4F292
:1008900002018A4223F00103136015DD3023C4F204
:1008A00002039A421CD04423C4F202039A421BD092
:1008B0005823C4F202039A421CD14FF4803321E042
:1008C00004218163012070470823C4F202039A4285
:1008D0000ED01C23C4F202039A420BD1102311E064
:1008E0004FF480730EE000BF4FF480530AE000BF66
:1008F000012307E00CF168014FF080738A4208BFC2
:100900004FF480130121CCF8003080F82110416BA6
:100910000022002980F8202004BF0020704780B505
:100920008847002080BD0000B0B5044600F018F9EB
:10093000054640F21000C2F200000078611C18BFAA
:10094000044400BF00F00CF9401BA042FAD3B0BD34
:100950002DE9F04F82B00E68002E00F0FD8041F2CC
:100960000042C4F20102042340F2004E904208BF4C
:1009700003234FF6FF7CC4F2010E009300240123F1
:10098000C1F2100C4FF0000A4FF000094BE000BF1D
:1009900041F20002C4F20102009F904208BF022708
:1009A00004F00C030F229A402BEA020207FA03F329
:1009B0004FEA9A051A4346F825204E6840F20C4546
:1009C000F202DEF8082054BF22EA080242EA0802D6
:1009D000C4F20105CEF808202A68B30254BF22EA07
:1009E000080242EA08022A60B303DEF8042054BF7A
:1009F00022EA080242EA0802F303CEF80420DEF8F5
:100A000000204FF0010354BF22EA080242EA080224
:100A1000CEF800200E680AF1010A36FA0AF204F153
:100A2000040400F0998003FA0AFB16EA0B08F1D0DF
:100A30004E68664512DC122E56D8DFE806F0350BFC
:100A40004D4955555555555555555555555555457A
:100A5000510000BFD1F80C9046E000BF4FF6FF7286
:100A6000C1F2210296420FDC0022C1F2110296422D
:100A70001AD00022C1F21202964215D00022C1F211
:100A80002102964210D02FE00022C1F222029642AB
:100A90000AD00022C1F23102964205D00022C1F2F2
:100AA0003202964220D100BF8A684AB1012A14BF9F
:100AB000C0F814B0C0F810B04FF0080914E000BF3F
:100AC0004FF0040910E000BFCA6802F104090BE00E
:100AD0004FF0000908E000BFCA6802F1080903E00E
:100AE000CA6802F10C0900BF02462646B8F5807FAD
:100AF00024BF0432203E17680F25B54027EA0505BC
:100B000009FA06F635431560CA79D2067FF582AF39
:100B100041F21803C4F202031A68AEF57E7642F081
:100B200001021A601A6802F001020192019A2AF089
:100B3000030256F802B040F60002C4F201029042ED
:100B400008D040F60042C4F2010290427FF420AF88
:100B5000012725E7002723E702B0BDE8F08F00005A
:100B600040F23C30C2F200000068704740F21000D2
:100B700040F23C31C2F20000C2F2000100780A6883
:100B8000104408607047000080B542F20000C4F2D3
:100B90000200016841F010010160032000F08CF8B0
:100BA0000F2000F005F800F027F8002080BD0000BD
:100BB00070B540F21006C2F2000640F21801327819
:100BC000C2F200014FF47A730968B3FBF2F20446F3
:100BD000B1FBF2F1084600F085FB0F2C4FF0010548
:100BE00008D838B94FF0FF3021460022002500F028
:100BF00037F87460284670BD82B041F21800C4F224
:100C000002000168022241F001010160016801F067
:100C1000010101910199416841F0805141604068B2
:100C200000F08050009000980420C4F20100016898
:100C300062F31A61016002B070470000002848BFEB
:100C4000704700F01F01012202FA01F11C2202EAA2
:100C5000D0004EF20012CEF2000281507047000028
:100C600010B54EF60C5CCEF2000CDCF80030C3F38D
:100C7000022E8EF00704042C28BF0424BEF10303C7
:100C80004FF0FF3E0EFA04F438BF0023A143994011
:100C90000EFA03F39A43114300F00F0200F1604390
:100CA0000901043A03F564436244002848BF02F195
:100CB0000C03197010BD00004EF60C51CEF200016D
:100CC0000A684FF6FF031A4060F30A2242F0806080
:100CD00040F0FD7008607047002804BF0120704795
:100CE0002DE9F04381B042F20008C4F20208044644
:100CF000D8F800000D4600F0070081420CD9D8F862
:100D0000000020F007002843C8F80000D8F80000D1
:100D100000F00700A8426CD1206841F20409810765
:100D2000C4F2020917D5410705D5D9F8001041F4DE
:100D3000E061C9F80010010705D5D9F8001041F4A9
:100D40006051C9F80010D9F80010A26821F0F00134
:100D50001143C9F80010C00742D1D8F8000000F0D4
:100D6000070085420CD2D8F8000020F00700284385
:100D7000C8F80000D8F8000000F00700A84238D1F9
:100D80002068410707D5D9F80010E26821F4E06136
:100D90001143C9F80010000708D5D9F800002169EF
:100DA00020F4605040EAC100C9F80000D9F80020E2
:100DB00002F00C00082841F20020C0F27A004DD168
:100DC00042F6C013C2F38341C0F60003595CD2035C
:100DD00038D440F60010C0F23D0048433EE000BF6A
:100DE000606859F8041C022808D0012826D189031C
:100DF00006D4012001B0BDE8F08300BF8901F8D519
:100E0000D9F8001021F003010843C9F80000FFF7EA
:100E1000A7FE064641F28837D9F80000616800F065
:100E20000C00B0EB810F98D0FFF79AFE801BB84200
:100E3000F2D9032001B0BDE8F08300BF8907D8D5FF
:100E4000DEE700BFD9F8002042F6BE13C2F34042ED
:100E5000C0F600039A5C4843B0FBF2F0D9F80010EA
:100E600042F6A612C1F30311C0F60002515C40F233
:100E7000180220FA01F140F21400C2F200000068EA
:100E8000C2F200021160FFF793FE002001B0BDE83E
:100E9000F083000040F2180041F20401C2F20000A9
:100EA000C4F202010068096842F6B612C1F30221D9
:100EB000C0F60002515CC8407047000040F21800C4
:100EC00041F20401C2F20000C4F2020100680968A4
:100ED00042F6B612C1F3C221C0F60002515CC8400E
:100EE00070470000002804BF012070472DE9F04141
:100EF00082B00446007841F20006C007C4F2020640
:100F00000CD0706800F00C00042840F0818030683C
:100F1000800303D56068002800F0468120788007B0
:100F20001BD5706810F00C0F09D0706800F00C0031
:100F3000082840F087807068C00300F18380306823
:100F4000800703D52069012840F02E81306861694F
:100F500020F0F80040EAC10030602078000713D488
:100F6000207840072CD4E569002D00F018817068C6
:100F700000F00C00082840F0A780012D40F004810B
:100F8000012002B0BDE8F081A069002800F0848053
:100F90000020C4F242200121C0F88014FFF7E0FDD8
:100FA000054600BF706A800700F1B280FFF7D8FDE8
:100FB000401B0228F6D9032002B0BDE8F08100BF33
:100FC000F0695FEAC00808D4F06940F08050F06131
:100FD000F06900F080500090009847F20007C4F2DA
:100FE00000073868C00549D4386840F4807038601C
:100FF000FFF7B6FD054600BF3868C0053ED4FFF7D1
:10100000AFFD401B6428F7D9032002B0BDE8F08192
:10101000706800F00C00082803D17068C0033FF529
:1010200076AF61683068002900F00C81B1F5A02F1F
:1010300000F00081B1F5803F40F01A8140F480302B
:101040001CE100BF2069002840F20000C4F24220E9
:1010500000F0888001210160FFF782FD054600BF96
:10106000306880073FF572AFFFF77AFD401B02281A
:10107000F6D9032002B0BDE8F08100BFE168306A14
:10108000002900F09D80052900F09280012940F0A0
:10109000AF8040F00100B1E00020C4F24220002106
:1010A000C0F88014FFF75CFD054600BF706A80073A
:1010B0007FF556AFFFF754FD401B0228F6D90320F9
:1010C00002B0BDE8F08100BF0027C4F24227002033
:1010D0003866FFF745FD022D05460DD130688001C9
:1010E00040F1DE80FFF73CFD401B02284FF003007B
:1010F000F4D902B0BDE8F081306880014FD5FFF728
:101100002FFD401B02284FF00300F5D9F1E700BF87
:1011100040F21800C2F20000006844F6D351C1F258
:101120006201A0FB0101480A019000BF00BF0198C5
:10113000411E002801913FF413AF00BF0198411EEA
:10114000002801913FF40CAF00BF0198411E002818
:1011500001913FF405AF00BF0198411E00280191A5
:10116000E4D1FDE600210160FFF7FAFC054600BF6F
:10117000306880077FF5F1AEFFF7F2FC401B0228D4
:101180004FF00300F4D9B4E77068216A00F48032AC
:101190008A4209D1616A00F47010884204D10020AB
:1011A00002B0BDE8F08100BF012002B0BDE8F081CF
:1011B00040F004003062306A40F001001EE000BFE1
:1011C00020F001003062306A20F004003062FFF746
:1011D000C7FC054641F28837306A800720D5FFF703
:1011E000BFFC401BB8424FF00300F5D981E700BFB8
:1011F00020F001003062306A20F004003062FFF716
:10120000AFFC054641F28837306A800708D4FFF703
:10121000A7FC401BB842F7D9032002B0BDE8F0811B
:10122000B8F1000F3FF59FAEF06920F08050F061FB
:1012300099E600BF40F480203060306840F4803090
:101240001CE000BF20F480303060306820F4802043
:101250003060FFF785FC0546306880037FF55EAEA1
:10126000FFF77EFC401B64284FF00300F4D940E7F1
:1012700020F480303060306820F480203060FFF748
:101280006FFC0546306880033FF548AEFFF768FC09
:10129000401B6428F6D9032002B0BDE8F08100BFEE
:1012A000206AB0F5803F05D17168A26821F4003151
:1012B000114371607168626A21F47411114308432B
:1012C000706001203866FFF74BFC044630688001EF
:1012D0003FF565AFFFF744FC001B02284FF0030009
:1012E000F4D906E7411E0020B0EB116F1CBF0120AE
:1012F00070474EF21002CEF2000251604EF62351BA
:10130000CEF20001F0230B7007219060116070474E
:101310007047000070470000B0B582B001680A68ED
:10132000CC684B6902F02F05202D04F0200505D173
:1013300025B102B0BDE8B04000F092BE5FEA027C89
:101340001EBF03F0010E04F4907313EB0E0341D1A2
:10135000036BD50618D5012B16D114F0100313D04A
:10136000002201920A6801924A680192019A496931
:1013700049064BD4818DC28DC38D002B18BF91427D
:1013800040F0F48102B0B0BD13062DD514F08003F7
:101390002AD090F84120212AF4D18268B2F5805FEA
:1013A00003D10269002A00F06782026A531C0362BB
:1013B00012784A60C28C013A1304C284E2D1C86830
:1013C00020F08000C860C86840F04000C86002B0EB
:1013D000B0BD00BFD30718BF14F4807340F0D080B5
:1013E000530700F1D380D8E05206CBD514F0400269
:1013F000C8D0CA6822F04002CA60202180F841109B
:1014000002B0BDE8B04000F0F5BB00BFC16B0A6898
:10141000526893B2002BB5D0858DAB42B2D2C28553
:101420008969202900F0A180016851E8031F026842
:1014300021F4807142E80313DBB1016851E8031F16
:10144000026821F4807142E8031393B1016851E806
:10145000031F026821F4807142E803134BB1016855
:1014600051E8031F026821F4807142E80313002B46
:10147000DAD1016851E8051F026821F0010142E854
:101480000513C3B3016851E8051F026821F001018B
:1014900042E805137BB3016851E8051F026821F09B
:1014A000010142E8051333B3016851E8051F0268E2
:1014B00021F0010142E80513002BDAD11BE000BF47
:1014C000016851E8051F026821F0400142E8051358
:1014D000DBB1016851E8051F026821F0400142E8D4
:1014E000051393B1016851E8051F026821F040011E
:1014F00042E805134BB1016851E8051F026821F06D
:10150000400142E80513002BDAD1202180F8421077
:1015100000210163016851E8031F026821F01001F6
:1015200042E80313DBB1016851E8031F026821F0B0
:10153000100142E8031393B1016851E8031F0268E8
:1015400021F0100142E803134BB1016851E8031F79
:10155000026821F0100142E80313002BDAD1C16BBD
:1015600004460846FFF760F9204602214163818D59
:10157000C28D891A89B202B0BDE8B040FFF7C8BE7B
:10158000436C43F001034364530706D5BEF1000FDB
:1015900003D0436C43F002034364930706D5BEF1C6
:1015A000000F03D0436C43F004034364BCF1000F0D
:1015B00006D55EEA050303D0436C43F00803436499
:1015C000436C002B3FF4DEAE920605D525B10446F0
:1015D00000F046FD216820464969426C01F0400157
:1015E00002F00802891800F0B98000BF016851E8D4
:1015F000031F026821F4907142E80313BBB3016832
:1016000051E8031F026821F4907142E8031373B399
:10161000016851E8031F026821F4907142E8031346
:101620002BB3016851E8031F026821F4907142E86E
:101630000313002BDAD11AE0016851E8051F026894
:1016400021F0010142E80513DBB1016851E8051FF3
:10165000026821F0010142E8051393B1016851E8E5
:10166000051F026821F0010142E805134BB1016832
:1016700051E8051F026821F0010142E80513002B23
:10168000DAD1016B012924D1016851E8031F0268F6
:1016900021F0100142E80313DBB1016851E8031F98
:1016A000026821F0100142E8031393B1016851E888
:1016B000031F026821F0100142E803134BB10168D7
:1016C00051E8031F026821F0100142E80313002BC8
:1016D000DAD1202180F842100021016301684969B4
:1016E000490640F1C380016851E8051F026821F0F6
:1016F000400142E80513DBB1016851E8051F0268AB
:1017000021F0400142E8051393B1016851E8051F3B
:10171000026821F0400142E805134BB1016851E82D
:10172000051F026821F0400142E80513002BDAD1C1
:10173000C16B002900F09A8041F61542C0F6000204
:10174000044608464A63FFF793F800283FF41AAEB0
:10175000E06B416B02B0BDE8B04008470446FFF7BC
:10176000D9FD0020606402B0B0BD00BF891A00BF7F
:10177000026852E8032F036822F4907243E80325BD
:10178000BDB3026852E8032F036822F4907243E865
:10179000032575B3026852E8032F036822F49072A0
:1017A00043E803252DB3026852E8032F036822F4AF
:1017B000907243E80325002DDAD11AE0026852E85E
:1017C000052F036822F0010243E80525DDB1026818
:1017D00052E8052F036822F0010243E8052595B180
:1017E000026852E8052F036822F0010243E805254C
:1017F0004DB1026852E8052F036822F0010243E868
:101800000525002DDAD1202280F842200022026333
:10181000026852E8032F036822F0100243E8032510
:10182000DDB1026852E8032F036822F0100243E89A
:10183000032595B1026852E8032F036822F01002D5
:1018400043E803254DB1026852E8032F036822F0F4
:10185000100243E80325002DDAD1022289B2426347
:1018600002B0BDE8B040FFF753BD00BF02B0BDE815
:10187000B040FFF74FBD00BF026A32F8023B6FF382
:101880005F234B60026295E5002804BF012070478A
:1018900010B5044690F8410028B9002084F84000B3
:1018A000204600F063F8242084F841002068D4E941
:1018B0000212C36823F40053C360036923F4405346
:1018C0001A430261D4E904231143C268194341F267
:1018D0000C639A431143C1604169A26921F44071CC
:1018E000114343F60002C4F201029042416103D069
:1018F000FFF7D0FA02E000BFFFF7E0FAD4E90023D7
:10190000192148439900B0FBF1F048F21F5CC5F281
:10191000EB1CA0FB0C314FF69C734909C0F6FF731A
:1019200001FB0300322303EB0010A0FB0C03F020AB
:1019300000EA531000EB0110C3F343110844906018
:101940001069202120F490401061506920F02A0095
:101950005061D06840F40050D0600020606484F88A
:10196000411084F84210606310BD000070B586B06D
:1019700040F60004C4F20104006804F5405100265A
:1019800088420596CDE90366029601D006B070BD87
:1019900041F21800C4F20200016802AD41F4804136
:1019A0000160016801F4804101910199016841F0F1
:1019B000040101600068294600F0040001900198CC
:1019C0004FF40070029002200390032005902046FF
:1019D000FEF7BEFF4FF48060CDE90206204629469F
:1019E0000496FEF7B5FF252002210022FFF738F903
:1019F0002520FFF723F906B070BD000090F84230B3
:101A0000202B07D100294FF0010318BF002A05D170
:101A10001846704702231846704700BF002303632F
:101A2000816222218285C285436480F84210016967
:101A3000006819B1C16841F48071C160416941F029
:101A400001014161C16841F02001C1601846704741
:101A500040F28000C2F20000012181707047000056
:101A60002DE9F04381B0044690F84100202809D1C7
:101A700000294FF0010018BF002A07D101B0BDE8CE
:101A8000F08300BF022001B0BDE8F0830020606455
:101A900021201D460E4684F841001746FFF760F8E6
:101AA000A784E784A1688146B1F5805F02D12069EF
:101AB00000285DD037460020E28C2168002A5DD0E6
:101AC0006A1C24D0002D4AD0804600BF086800065A
:101AD00008D4FFF745F8A0EB0900A8427AD821689E
:101AE000C868F3E717B117F8010B04E038F8020BE8
:101AF00000276FF35F204860E08C0138E084E08CC1
:101B00000028E3D13AE000BF0A68120609D40A6847
:101B1000120606D40A6812065CBF0A685FEA02620F
:101B2000F2D51FB117F8012B05E000BF30F8022BEA
:101B300000276FF35F224A60E28C013AE284E28C74
:101B4000002AE4D11AE000BF30F8022B00276FF31F
:101B50005F224A60E28C013AE284E28C72B10A6848
:101B6000120635D5002FEFD017F8012BF1E700BF93
:101B700000273046E28C2168002AA1D1086840067F
:101B80001ED42DB3681C14D1086840062AD40868F6
:101B9000400627D40868400624D4086840064FF061
:101BA0000000F1D50DE000BF2068C1680068400664
:101BB00018D4FEF7D5FFA0EB0900A842F4D909E03C
:101BC0000020202184F8411001B0BDE8F08300BF5F
:101BD000FEF7C6FF0320202184F8411001B0BDE8C4
:101BE000F08300BF0020202184F8411001B0BDE83F
:101BF000F083000070470000FEE70000FEE70000F1
:101C0000FEE700007047000070470000FEF7AEBF1F
:101C100070470000406A0021C185C184FFF77ABB8C
:101C20002DE9F04700F030F900F0AEF940F2582706
:101C3000C2F2000797F8530030B1802800F02181EC
:101C400097F832A0B9E000BF40F28006C2F2000669
:101C500097F85400B179F1B1002100BF7A1892F8D9
:101C60005530B5794C1CAC42184414D292F8563019
:101C7000B5798C1CAC4218440DD292F85730B57926
:101C8000CC1CAC42184406D292F85820B3790431E7
:101C900099421044E2D34042F08197F832A097F87D
:101CA0003300B17A5044F1B1002100BF7A1892F8A4
:101CB0003430B57A4C1CAC42184414D292F835300A
:101CC000B57A8C1CAC4218440DD292F83630B57AF5
:101CD000CC1CAC42184406D292F83720B37A0431B7
:101CE00099421044E2D34042308297F852000328D0
:101CF00063D1F08900F01AFD40F2FC04C2F2000446
:101D0000A16D02460846114600F0B0FB002854D0F1
:101D10000025A069C4F2C825294600F0DDFBB061AA
:101D2000E069294600F0D8FBF061206A294600F0FE
:101D3000D3FB3062606A294600F0CEFB7062A06A75
:101D4000B062E06AF062216B3163616B7163A16B19
:101D5000B163E16BF163216C3164616C7164A16CFE
:101D6000B164E16CF164256D3565D4F85490C6F822
:101D7000549000F0A7FC00F01F013170C0F3431134
:101D800071704FF4FA614BF2000801EB5020CCF275
:101D90002A58B0812846414600F006FB0025C4F2CF
:101DA0002015294600F098FBB0654846414600F0F2
:101DB000FBFA294600F090FBF065BAF1000F60D104
:101DC00097F8310004285CD140F28007C2F2000786
:101DD000388A00F0ABFC40F27815C2F20005A96920
:101DE00002460846114600F041FB002808BFBDE846
:101DF000F08740F2FC06C2F200060024306EC4F206
:101E00007A44214600F068FB3866706E214600F087
:101E100063FB7866B06E214600F05EFBB866F06E3C
:101E2000214600F059FBF866306F214600F054FB64
:101E30003867706F214600F04FFB7867B06F21461E
:101E400000F04AFBB8672868214600F045FB306087
:101E50006868214600F040FB7060A868214600F0E9
:101E60003BFBB060E868214600F036FBF060286973
:101E7000214600F031FB30616869214600F02CFBFF
:101E80007061BDE8F0870000B0B540F25824C2F29E
:101E9000000440F2800094F8511094F8522094F815
:101EA000533094F85450C2F20000C1700271437173
:101EB0008571B4F8550040BA00F038FC40F2FC05DA
:101EC000C2F20005A861B4F85700C0BA00F016FCD1
:101ED000E861B4F8590040BA00F028FC2862B4F870
:101EE0005B0040BA00F022FC6862B4F85D0040BAC2
:101EF00000F01CFCA862B4F85F0040BA00F016FCC9
:101F0000E862B4F8610040BA00F010FC2863B4F84D
:101F1000630040BA00F00AFC6863B4F8650040BA98
:101F200000F004FCA86394F8670000F0FFFBE8638E
:101F300094F8680000F0FAFB286494F8690000F057
:101F4000F5FB686494F86A0000F0F0FBA86494F86C
:101F50006B0000F0EBFBE864B4F86C0040BA00F0F2
:101F6000E5FB2865B4F86E0040BA00F0DFFB686559
:101F7000B4F8700040BA00F0D9FBA86594F872007C
:101F800000F0D4FBE865B0BDB0B540F25824C2F211
:101F9000000440F2800094F8301094F8312094F856
:101FA000323094F83350C2F20000C17102724372B1
:101FB0008572A08E40BA00F0B9FB40F2FC05C2F277
:101FC00000052866E08E40BA00F0B0FB6866208FFE
:101FD00040BA00F0ABFBA866608F40BA00F0A6FBE9
:101FE000E866A08F40BA00F0A1FB2867E08F40BAF6
:101FF00000F09CFB6867B4F8400040BA00F096FB24
:10200000A867B4F8420040BA00F090FB40F278159F
:10201000C2F200052860B4F8440040BA00F086FB24
:102020006860B4F8460040BA00F080FBA860B4F8DD
:10203000480040BA00F07AFBE860B4F84A0040BAC1
:1020400000F074FB2861B4F84C0040BA00F06EFB5D
:102050006861B4F84E0040BA00F068FBA861B0BDFA
:1020600081B090F84210222921D183680246B3F54D
:10207000805F09D152F8281F52F8183C002B63D01A
:1020800003685B680AE000BF52F8281F13B90369B0
:10209000002BF5D003685B6803F07F030B701168B9
:1020A00001311160C18D01390A04C18502D001B02E
:1020B000704700BF0168CA6822F02002CA60CA687F
:1020C00022F48072CA604A6922F001024A6120212A
:1020D00080F8421000214163026B012A3CD1016368
:1020E000016851E8031F026821F0100142E8031360
:1020F000DBB1016851E8031F026821F0100142E8DA
:10210000031393B1016851E8031F026821F0100125
:1021100042E803134BB1016851E8031F026821F044
:10212000100142E80313002BDAD101680A68D206D5
:1021300006D5002200920A68009249680091009931
:10214000818D01B0FFF7E4B8026852686FF35F2237
:1021500021F8022B8162A5E701B0FFF779BC0000EE
:1021600040F2F420C2F20000FFF7D6B8FEE700000C
:1021700096B0FEF709FD00240120CDE91144CDE918
:102180000F440C9010904FF4E0104FF48031022572
:1021900015900CA8CDE90D14CDE91351FEF7A2FE60
:1021A00020B1EFF3108072B6FEE700BF0F20CDE93B
:1021B00007054FF48060CDE90A0407A802210994BD
:1021C000FEF78AFD20B1EFF3108072B6FEE700BF84
:1021D00041F21800C4F20200016846F2004541F0E5
:1021E00020010160016840F2CC2401F020010C9133
:1021F0000C990168C4F2000541F004010160006817
:10220000C2F2000400F004000C900C9805F5544153
:10221000204640F8281F4FF4165100260C22C0E932
:102220000116C0E90366C0E90526C661FFF72CFB6D
:1022300020B1EFF3108072B6FEE700BF04204FF428
:102240006021C4E9005004F110004FF480124FF0F7
:1022500001230EC04FF48070A0832046C4E90266BB
:10226000FEF7FAF920B1EFF3108072B6FEE700BF77
:1022700040F2582604F12805C2F2000606F1510189
:10228000284622220191FFF7B9FB40F20001C2F279
:102290000001284607223223FFF7E2FB2046FEF723
:1022A00095FA40F2781BC2F2000B0BF15000069039
:1022B0000BF1200040F2E01905900BF12800C2F26A
:1022C000000940F2800A049009F11800C2F2000AE5
:1022D0000BF11C0703900BF1300002909AF80200FA
:1022E00001281BD19AF80B0040F20001C2F2000154
:1022F000002808BF0731DDF8048080F0010008BF26
:1023000006F130088AF80B00284607223223FFF72F
:10231000A7FB284641462122FFF770FBFFF780FC10
:10232000FDF7A8FF2046FEF783F90028D6D0DDE9A7
:10233000052120463B46FEF729F9049A20464946E6
:102340003B46FEF723F9DDE9022120463B46FEF736
:102350001DF90120FEF7E8FA09F130010AF1140233
:1023600020463B46FEF712F909F148010BF138020D
:1023700020463B46FEF70AF909F160010BF14002E5
:1023800020463B46FEF702F90BF148022046314653
:102390003B46FEF7FBF806F118010AF1120220464F
:1023A0003B46FEF7F3F899E790EA010F48BF81F04A
:1023B000004100F18A82421A3CBF801A89184FEA14
:1023C000D052A2EBD1534FF07F4C1CEA410F18BF03
:1023D0009CEA026F00F03B804FF0004C4CEA00207A
:1023E0004CEA012121FA03FC10EB0C0C1ED202F185
:1023F000FF325FEA1C2040EBC25038BF70471CF030
:102400007F0F4FEA400C18BFBCF17F4F38BF7047B9
:10241000C3F12003994008BF20F00100BCF17F4FB9
:1024200038BF7047A0F1C04000F042BA4FEA3C000C
:10243000000A40EBC25028BF1CF0FF0F4FEA400CCF
:10244000E6D018BFBCF17F4F38BF7047EAE79CEA7F
:10245000026F05D010EA5C0F08BF00F00040704723
:1024600010B500F0DFF900BF64FBBE3E10B500F010
:10247000F5F80CBF0120002010BD10B500F0EEF8FB
:1024800014BF0120002010BD10B500F063F98CBF0F
:102490000120002010BD10B500F05CF92CBF012018
:1024A000002010BD10B500F089F994BF0120002074
:1024B00010BD10B500F082F934BF0120002010BD1E
:1024C000401058BFC0F14040491058BFC1F14041D1
:1024D0008142EFF3008070474FF47F0C1CEAD0126A
:1024E0001EBF1CEAD11392EA0C0F93EA0C0F00F006
:1024F000858090EA010F48BF42F4807240F4000CDE
:1025000041F400002CF07F4120F07F4000B5A2EBA9
:10251000030281420FF2081CACEB504E9EF800E023
:10252000C0F100004FEA4E0E00FB0EFC38BF490020
:102530004FEA2C1C0CFB0EF34FEACE1E0EEB635E33
:102540004FEA112C0EFB0CFC4FEAC1214FEA1C5341
:1025500000FB031102F5FA024FEA112C0EFB0CFCF2
:102560004FEA01314FEADC4C00FB0C1142EB2242F6
:10257000C14228BF09184CEB03335DF804EB10EBA4
:10258000410143EBC250B2F57C0F38BF704729D5EB
:1025900012F0F00F1CBF00F1C04000F00040704787
:1025A000008182838485868788898B8C8D8E8F912C
:1025B0009293959697999A9C9D9FA0A2A3A5A7A850
:1025C000AAACAEB0B2B3B5B7B9BCBEC0C2C5C7C97C
:1025D000CCCED1D4D7D9DCDFE2E6E9ECF0F3F7FAE0
:1025E000FE0000004FEA400C0CF1807CBCF17E4FF5
:1025F00028BF7047B0F1C04000F05AB90CEAD113BF
:1026000090EA010F48BF42F48072624538BF6345CB
:1026100007D213F47F0F16D080EA010000F00040CB
:10262000704710B500F0FEF8097EFC3E00F005B8DA
:1026300080EA010000F00040704780EA010000F0ED
:10264000004000F035B912F47F0F04BF0248704714
:1026500080EA010000F02CB90000C07F50EA010CB4
:1026600000F113801CF5000F58BFBCF5000F01D41A
:102670008842704707D710F5000F58BF11F5000FBB
:1026800015D488427047894270471CF5000F04D565
:10269000BCF5000FF7D5814270474FF0807C1CEBF2
:1026A000400F38BF1CEB410F01D28142704710B57B
:1026B00000F0B8F8922449004FF000504FF08051DC
:1026C000FFF7FEBE41000B0ED3F19E0208D950F475
:1026D00000034FEA032323FA02F048BF4042704749
:1026E00010B500F09FF800BF499224800020704789
:1026F0006FF0004282EA20007047000010F00041B5
:1027000048BF4042B0FA80F310FA03F2C3F19D03D0
:102710000BD051EAC35101EB1220530638BF70476A
:1027200000F1010008BF20F001007047B0FA80F30B
:1027300010FA03F2C3F19D030AD0D90501EB122070
:10274000530638BF704700F1010008BF20F00100B8
:102750007047000050EA010C00F113801CF5000FD7
:1027600058BFBCF5000F01D48842704707D710F559
:10277000000F58BF11F5000F15D4884270478942E9
:1027800070471CF5000F04D5BCF5000FF7D581424A
:1027900070474FF0807C1CEB400F38BF1CEB410FA3
:1027A00001D28142704710B500F03CF892244900F4
:1027B0004FF080504FF00051FFF782BE50EA010CFD
:1027C00000F113801CF5000F58BFBCF5000F01D4B9
:1027D0008842704707D710F5000F58BF11F5000F5A
:1027E00015D488427047894270471CF5000F04D504
:1027F000BCF5000FF7D5814270474FF0807C1CEB91
:10280000400F38BF1CEB410F01D28142704710B519
:1028100000F008F8922449004FF000504FF080512A
:10282000FFF74EBE0EF1020E2EF0030E5EF8044BC3
:10283000244204D44FEA4102B2F17F4F11D84FEA4B
:102840004003B3F17F4F0CD80ED14FEAD07C0CEB94
:102850004C0C0CF1020CB2F17F4F08BF4CEBD17C59
:1028600004E04FF0080C01E04FEAD17C0CEB4C0384
:1028700024FA03F404F00704B4F1040C06D20EEBBE
:10288000840CBDE810404CF0010C6047DFE80CF010
:10289000070802024FF00040A0F5800010BD084676
:1028A000420018BFD2F1807288BF00F0004010BD16
:1028B000FF2141EAD050C0057047000090EA010FA7
:1028C00048BF81F000413FF576AD421A04D882F04E
:1028D0000042A0EB020011444FEAD052A2EBD153C8
:1028E0004FF07F4C1CEA410F18BF9CEA026F4AD0A0
:1028F0004FF0004C4CEA00204CEA012121FA03FC85
:10290000B0EB0C0C0FD412F0FE0F36D05FEA4C0087
:102910001DD5001240EBC25038BF70471CF03F0F6E
:1029200018BF70470BE05FEA1C20A2F1010240EBE8
:10293000C25038BF70471CF07F0F18BF7047C3F1FB
:102940002003994014BF401E20F0010070474FEA59
:102950001223800808BF7047B0FA80FCA2EB0C027B
:10296000CCF1280C60FA0CF093EA122F04BF00EBB4
:10297000C25070474FEAC3707047130A5FEADC1019
:1029800008BF7047F6E79CEA026F04D010EA5C0FBC
:1029900008BF0020704710B5FFF744FF40DFF63E48
:1029A00081F00040704700000000000000000102BC
:1029B00003040607080900000000010203040102E5
:1029C00002030405060708090A0B0C0D0E0F101070
:1029D000F02900080000002020000000500100083D
:1029E000102A0008200000202009000070010008C3
:1029F000DDA50300FFFD77DDA50400FFFC770000E7
:102A0000010000001000000000127A000000000029
:04000005080000ED02
:00000001FF
